{
  "_format": "hh-sol-artifact-1",
  "contractName": "InsuranceRegistry",
  "sourceName": "contracts/InsuranceRegistry.sol",
  "abi": [
    {
      "inputs": [
        {
          "internalType": "address",
          "name": "_vehicleNFT",
          "type": "address"
        }
      ],
      "stateMutability": "nonpayable",
      "type": "constructor"
    },
    {
      "inputs": [
        {
          "internalType": "address",
          "name": "owner",
          "type": "address"
        }
      ],
      "name": "OwnableInvalidOwner",
      "type": "error"
    },
    {
      "inputs": [
        {
          "internalType": "address",
          "name": "account",
          "type": "address"
        }
      ],
      "name": "OwnableUnauthorizedAccount",
      "type": "error"
    },
    {
      "anonymous": false,
      "inputs": [
        {
          "indexed": true,
          "internalType": "address",
          "name": "previousOwner",
          "type": "address"
        },
        {
          "indexed": true,
          "internalType": "address",
          "name": "newOwner",
          "type": "address"
        }
      ],
      "name": "OwnershipTransferred",
      "type": "event"
    },
    {
      "inputs": [
        {
          "internalType": "uint256",
          "name": "",
          "type": "uint256"
        }
      ],
      "name": "insuranceData",
      "outputs": [
        {
          "internalType": "bool",
          "name": "active",
          "type": "bool"
        },
        {
          "internalType": "uint256",
          "name": "expiry",
          "type": "uint256"
        },
        {
          "internalType": "address",
          "name": "insurer",
          "type": "address"
        }
      ],
      "stateMutability": "view",
      "type": "function"
    },
    {
      "inputs": [
        {
          "internalType": "uint256",
          "name": "tokenId",
          "type": "uint256"
        }
      ],
      "name": "isInsured",
      "outputs": [
        {
          "internalType": "bool",
          "name": "",
          "type": "bool"
        }
      ],
      "stateMutability": "view",
      "type": "function"
    },
    {
      "inputs": [],
      "name": "owner",
      "outputs": [
        {
          "internalType": "address",
          "name": "",
          "type": "address"
        }
      ],
      "stateMutability": "view",
      "type": "function"
    },
    {
      "inputs": [
        {
          "internalType": "uint256",
          "name": "tokenId",
          "type": "uint256"
        },
        {
          "internalType": "uint256",
          "name": "duration",
          "type": "uint256"
        }
      ],
      "name": "registerInsurance",
      "outputs": [],
      "stateMutability": "nonpayable",
      "type": "function"
    },
    {
      "inputs": [],
      "name": "renounceOwnership",
      "outputs": [],
      "stateMutability": "nonpayable",
      "type": "function"
    },
    {
      "inputs": [
        {
          "internalType": "address",
          "name": "newOwner",
          "type": "address"
        }
      ],
      "name": "transferOwnership",
      "outputs": [],
      "stateMutability": "nonpayable",
      "type": "function"
    },
    {
      "inputs": [],
      "name": "vehicleNFT",
      "outputs": [
        {
          "internalType": "contract VehicleNFT",
          "name": "",
          "type": "address"
        }
      ],
      "stateMutability": "view",
      "type": "function"
    }
  ],
  "bytecode": "0x608060405234801561001057600080fd5b50604051610cd1380380610cd183398181016040528101906100329190610223565b33600073ffffffffffffffffffffffffffffffffffffffff168173ffffffffffffffffffffffffffffffffffffffff16036100a55760006040517f1e4fbdf700000000000000000000000000000000000000000000000000000000815260040161009c919061025f565b60405180910390fd5b6100b4816100fc60201b60201c565b5080600260006101000a81548173ffffffffffffffffffffffffffffffffffffffff021916908373ffffffffffffffffffffffffffffffffffffffff1602179055505061027a565b60008060009054906101000a900473ffffffffffffffffffffffffffffffffffffffff169050816000806101000a81548173ffffffffffffffffffffffffffffffffffffffff021916908373ffffffffffffffffffffffffffffffffffffffff1602179055508173ffffffffffffffffffffffffffffffffffffffff168173ffffffffffffffffffffffffffffffffffffffff167f8be0079c531659141344cd1fd0a4f28419497f9722a3daafe3b4186f6b6457e060405160405180910390a35050565b600080fd5b600073ffffffffffffffffffffffffffffffffffffffff82169050919050565b60006101f0826101c5565b9050919050565b610200816101e5565b811461020b57600080fd5b50565b60008151905061021d816101f7565b92915050565b600060208284031215610239576102386101c0565b5b60006102478482850161020e565b91505092915050565b610259816101e5565b82525050565b60006020820190506102746000830184610250565b92915050565b610a48806102896000396000f3fe608060405234801561001057600080fd5b506004361061007d5760003560e01c806386a8293a1161005b57806386a8293a146100da5780638da5cb5b146100f6578063f2fde38b14610114578063f5c8b8b8146101305761007d565b8063189097fc14610082578063715018a6146100a057806379456466146100aa575b600080fd5b61008a610162565b6040516100979190610701565b60405180910390f35b6100a8610188565b005b6100c460048036038101906100bf9190610757565b61019c565b6040516100d1919061079f565b60405180910390f35b6100f460048036038101906100ef91906107ba565b610256565b005b6100fe610429565b60405161010b919061081b565b60405180910390f35b61012e60048036038101906101299190610862565b610452565b005b61014a60048036038101906101459190610757565b6104d8565b6040516101599392919061089e565b60405180910390f35b600260009054906101000a900473ffffffffffffffffffffffffffffffffffffffff1681565b61019061052f565b61019a60006105b6565b565b600080600160008481526020019081526020016000206040518060600160405290816000820160009054906101000a900460ff16151515158152602001600182015481526020016002820160009054906101000a900473ffffffffffffffffffffffffffffffffffffffff1673ffffffffffffffffffffffffffffffffffffffff1673ffffffffffffffffffffffffffffffffffffffff168152505090508060000151801561024e5750428160200151115b915050919050565b3373ffffffffffffffffffffffffffffffffffffffff16600260009054906101000a900473ffffffffffffffffffffffffffffffffffffffff1673ffffffffffffffffffffffffffffffffffffffff16636352211e846040518263ffffffff1660e01b81526004016102c891906108d5565b602060405180830381865afa1580156102e5573d6000803e3d6000fd5b505050506040513d601f19601f820116820180604052508101906103099190610905565b73ffffffffffffffffffffffffffffffffffffffff161461035f576040517f08c379a00000000000000000000000000000000000000000000000000000000081526004016103569061098f565b60405180910390fd5b6040518060600160405280600115158152602001824261037f91906109de565b81526020013373ffffffffffffffffffffffffffffffffffffffff168152506001600084815260200190815260200160002060008201518160000160006101000a81548160ff0219169083151502179055506020820151816001015560408201518160020160006101000a81548173ffffffffffffffffffffffffffffffffffffffff021916908373ffffffffffffffffffffffffffffffffffffffff1602179055509050505050565b60008060009054906101000a900473ffffffffffffffffffffffffffffffffffffffff16905090565b61045a61052f565b600073ffffffffffffffffffffffffffffffffffffffff168173ffffffffffffffffffffffffffffffffffffffff16036104cc5760006040517f1e4fbdf70000000000000000000000000000000000000000000000000000000081526004016104c3919061081b565b60405180910390fd5b6104d5816105b6565b50565b60016020528060005260406000206000915090508060000160009054906101000a900460ff16908060010154908060020160009054906101000a900473ffffffffffffffffffffffffffffffffffffffff16905083565b61053761067a565b73ffffffffffffffffffffffffffffffffffffffff16610555610429565b73ffffffffffffffffffffffffffffffffffffffff16146105b45761057861067a565b6040517f118cdaa70000000000000000000000000000000000000000000000000000000081526004016105ab919061081b565b60405180910390fd5b565b60008060009054906101000a900473ffffffffffffffffffffffffffffffffffffffff169050816000806101000a81548173ffffffffffffffffffffffffffffffffffffffff021916908373ffffffffffffffffffffffffffffffffffffffff1602179055508173ffffffffffffffffffffffffffffffffffffffff168173ffffffffffffffffffffffffffffffffffffffff167f8be0079c531659141344cd1fd0a4f28419497f9722a3daafe3b4186f6b6457e060405160405180910390a35050565b600033905090565b600073ffffffffffffffffffffffffffffffffffffffff82169050919050565b6000819050919050565b60006106c76106c26106bd84610682565b6106a2565b610682565b9050919050565b60006106d9826106ac565b9050919050565b60006106eb826106ce565b9050919050565b6106fb816106e0565b82525050565b600060208201905061071660008301846106f2565b92915050565b600080fd5b6000819050919050565b61073481610721565b811461073f57600080fd5b50565b6000813590506107518161072b565b92915050565b60006020828403121561076d5761076c61071c565b5b600061077b84828501610742565b91505092915050565b60008115159050919050565b61079981610784565b82525050565b60006020820190506107b46000830184610790565b92915050565b600080604083850312156107d1576107d061071c565b5b60006107df85828601610742565b92505060206107f085828601610742565b9150509250929050565b600061080582610682565b9050919050565b610815816107fa565b82525050565b6000602082019050610830600083018461080c565b92915050565b61083f816107fa565b811461084a57600080fd5b50565b60008135905061085c81610836565b92915050565b6000602082840312156108785761087761071c565b5b60006108868482850161084d565b91505092915050565b61089881610721565b82525050565b60006060820190506108b36000830186610790565b6108c0602083018561088f565b6108cd604083018461080c565b949350505050565b60006020820190506108ea600083018461088f565b92915050565b6000815190506108ff81610836565b92915050565b60006020828403121561091b5761091a61071c565b5b6000610929848285016108f0565b91505092915050565b600082825260208201905092915050565b7f4e6f74206f776e65720000000000000000000000000000000000000000000000600082015250565b6000610979600983610932565b915061098482610943565b602082019050919050565b600060208201905081810360008301526109a88161096c565b9050919050565b7f4e487b7100000000000000000000000000000000000000000000000000000000600052601160045260246000fd5b60006109e982610721565b91506109f483610721565b9250828201905080821115610a0c57610a0b6109af565b5b9291505056fea26469706673582212204a6c02e3fbcaa4ce31f9c8f33ca54b6f034decf9c8c69cdbf1e1ebdb10ebda1f64736f6c634300081c0033",
  "linkReferences": {},
  "deployedLinkReferences": {}
}