{
  "_format": "hh-sol-artifact-1",
  "contractName": "VehicleNFT",
  "sourceName": "contracts/VehicleNFT.sol",
  "abi": [
    {
      "inputs": [],
      "stateMutability": "nonpayable",
      "type": "constructor"
    },
    {
      "inputs": [
        {
          "internalType": "address",
          "name": "sender",
          "type": "address"
        },
        {
          "internalType": "uint256",
          "name": "tokenId",
          "type": "uint256"
        },
        {
          "internalType": "address",
          "name": "owner",
          "type": "address"
        }
      ],
      "name": "ERC721IncorrectOwner",
      "type": "error"
    },
    {
      "inputs": [
        {
          "internalType": "address",
          "name": "operator",
          "type": "address"
        },
        {
          "internalType": "uint256",
          "name": "tokenId",
          "type": "uint256"
        }
      ],
      "name": "ERC721InsufficientApproval",
      "type": "error"
    },
    {
      "inputs": [
        {
          "internalType": "address",
          "name": "approver",
          "type": "address"
        }
      ],
      "name": "ERC721InvalidApprover",
      "type": "error"
    },
    {
      "inputs": [
        {
          "internalType": "address",
          "name": "operator",
          "type": "address"
        }
      ],
      "name": "ERC721InvalidOperator",
      "type": "error"
    },
    {
      "inputs": [
        {
          "internalType": "address",
          "name": "owner",
          "type": "address"
        }
      ],
      "name": "ERC721InvalidOwner",
      "type": "error"
    },
    {
      "inputs": [
        {
          "internalType": "address",
          "name": "receiver",
          "type": "address"
        }
      ],
      "name": "ERC721InvalidReceiver",
      "type": "error"
    },
    {
      "inputs": [
        {
          "internalType": "address",
          "name": "sender",
          "type": "address"
        }
      ],
      "name": "ERC721InvalidSender",
      "type": "error"
    },
    {
      "inputs": [
        {
          "internalType": "uint256",
          "name": "tokenId",
          "type": "uint256"
        }
      ],
      "name": "ERC721NonexistentToken",
      "type": "error"
    },
    {
      "inputs": [
        {
          "internalType": "address",
          "name": "owner",
          "type": "address"
        }
      ],
      "name": "OwnableInvalidOwner",
      "type": "error"
    },
    {
      "inputs": [
        {
          "internalType": "address",
          "name": "account",
          "type": "address"
        }
      ],
      "name": "OwnableUnauthorizedAccount",
      "type": "error"
    },
    {
      "anonymous": false,
      "inputs": [
        {
          "indexed": true,
          "internalType": "address",
          "name": "owner",
          "type": "address"
        },
        {
          "indexed": true,
          "internalType": "address",
          "name": "approved",
          "type": "address"
        },
        {
          "indexed": true,
          "internalType": "uint256",
          "name": "tokenId",
          "type": "uint256"
        }
      ],
      "name": "Approval",
      "type": "event"
    },
    {
      "anonymous": false,
      "inputs": [
        {
          "indexed": true,
          "internalType": "address",
          "name": "owner",
          "type": "address"
        },
        {
          "indexed": true,
          "internalType": "address",
          "name": "operator",
          "type": "address"
        },
        {
          "indexed": false,
          "internalType": "bool",
          "name": "approved",
          "type": "bool"
        }
      ],
      "name": "ApprovalForAll",
      "type": "event"
    },
    {
      "anonymous": false,
      "inputs": [
        {
          "indexed": false,
          "internalType": "uint256",
          "name": "_fromTokenId",
          "type": "uint256"
        },
        {
          "indexed": false,
          "internalType": "uint256",
          "name": "_toTokenId",
          "type": "uint256"
        }
      ],
      "name": "BatchMetadataUpdate",
      "type": "event"
    },
    {
      "anonymous": false,
      "inputs": [
        {
          "indexed": false,
          "internalType": "uint256",
          "name": "_tokenId",
          "type": "uint256"
        }
      ],
      "name": "MetadataUpdate",
      "type": "event"
    },
    {
      "anonymous": false,
      "inputs": [
        {
          "indexed": true,
          "internalType": "address",
          "name": "previousOwner",
          "type": "address"
        },
        {
          "indexed": true,
          "internalType": "address",
          "name": "newOwner",
          "type": "address"
        }
      ],
      "name": "OwnershipTransferred",
      "type": "event"
    },
    {
      "anonymous": false,
      "inputs": [
        {
          "indexed": true,
          "internalType": "address",
          "name": "from",
          "type": "address"
        },
        {
          "indexed": true,
          "internalType": "address",
          "name": "to",
          "type": "address"
        },
        {
          "indexed": true,
          "internalType": "uint256",
          "name": "tokenId",
          "type": "uint256"
        }
      ],
      "name": "Transfer",
      "type": "event"
    },
    {
      "inputs": [
        {
          "internalType": "address",
          "name": "to",
          "type": "address"
        },
        {
          "internalType": "uint256",
          "name": "tokenId",
          "type": "uint256"
        }
      ],
      "name": "approve",
      "outputs": [],
      "stateMutability": "nonpayable",
      "type": "function"
    },
    {
      "inputs": [
        {
          "internalType": "address",
          "name": "owner",
          "type": "address"
        }
      ],
      "name": "balanceOf",
      "outputs": [
        {
          "internalType": "uint256",
          "name": "",
          "type": "uint256"
        }
      ],
      "stateMutability": "view",
      "type": "function"
    },
    {
      "inputs": [
        {
          "internalType": "uint256",
          "name": "tokenId",
          "type": "uint256"
        }
      ],
      "name": "getApproved",
      "outputs": [
        {
          "internalType": "address",
          "name": "",
          "type": "address"
        }
      ],
      "stateMutability": "view",
      "type": "function"
    },
    {
      "inputs": [
        {
          "internalType": "uint256",
          "name": "tokenId",
          "type": "uint256"
        }
      ],
      "name": "getVehicleInfo",
      "outputs": [
        {
          "components": [
            {
              "internalType": "string",
              "name": "vin",
              "type": "string"
            },
            {
              "internalType": "string",
              "name": "fuelType",
              "type": "string"
            },
            {
              "internalType": "string",
              "name": "battery",
              "type": "string"
            },
            {
              "internalType": "string",
              "name": "year",
              "type": "string"
            },
            {
              "internalType": "string",
              "name": "mileage",
              "type": "string"
            }
          ],
          "internalType": "struct VehicleNFT.VehicleInfo",
          "name": "",
          "type": "tuple"
        }
      ],
      "stateMutability": "view",
      "type": "function"
    },
    {
      "inputs": [
        {
          "internalType": "address",
          "name": "owner",
          "type": "address"
        },
        {
          "internalType": "address",
          "name": "operator",
          "type": "address"
        }
      ],
      "name": "isApprovedForAll",
      "outputs": [
        {
          "internalType": "bool",
          "name": "",
          "type": "bool"
        }
      ],
      "stateMutability": "view",
      "type": "function"
    },
    {
      "inputs": [
        {
          "internalType": "address",
          "name": "to",
          "type": "address"
        },
        {
          "internalType": "string",
          "name": "tokenURI",
          "type": "string"
        },
        {
          "internalType": "string",
          "name": "vin",
          "type": "string"
        },
        {
          "internalType": "string",
          "name": "fuelType",
          "type": "string"
        },
        {
          "internalType": "string",
          "name": "battery",
          "type": "string"
        },
        {
          "internalType": "string",
          "name": "year",
          "type": "string"
        },
        {
          "internalType": "string",
          "name": "mileage",
          "type": "string"
        }
      ],
      "name": "mintVehicleNFT",
      "outputs": [
        {
          "internalType": "uint256",
          "name": "",
          "type": "uint256"
        }
      ],
      "stateMutability": "nonpayable",
      "type": "function"
    },
    {
      "inputs": [],
      "name": "name",
      "outputs": [
        {
          "internalType": "string",
          "name": "",
          "type": "string"
        }
      ],
      "stateMutability": "view",
      "type": "function"
    },
    {
      "inputs": [],
      "name": "nextTokenId",
      "outputs": [
        {
          "internalType": "uint256",
          "name": "",
          "type": "uint256"
        }
      ],
      "stateMutability": "view",
      "type": "function"
    },
    {
      "inputs": [],
      "name": "owner",
      "outputs": [
        {
          "internalType": "address",
          "name": "",
          "type": "address"
        }
      ],
      "stateMutability": "view",
      "type": "function"
    },
    {
      "inputs": [
        {
          "internalType": "uint256",
          "name": "tokenId",
          "type": "uint256"
        }
      ],
      "name": "ownerOf",
      "outputs": [
        {
          "internalType": "address",
          "name": "",
          "type": "address"
        }
      ],
      "stateMutability": "view",
      "type": "function"
    },
    {
      "inputs": [],
      "name": "renounceOwnership",
      "outputs": [],
      "stateMutability": "nonpayable",
      "type": "function"
    },
    {
      "inputs": [
        {
          "internalType": "address",
          "name": "from",
          "type": "address"
        },
        {
          "internalType": "address",
          "name": "to",
          "type": "address"
        },
        {
          "internalType": "uint256",
          "name": "tokenId",
          "type": "uint256"
        }
      ],
      "name": "safeTransferFrom",
      "outputs": [],
      "stateMutability": "nonpayable",
      "type": "function"
    },
    {
      "inputs": [
        {
          "internalType": "address",
          "name": "from",
          "type": "address"
        },
        {
          "internalType": "address",
          "name": "to",
          "type": "address"
        },
        {
          "internalType": "uint256",
          "name": "tokenId",
          "type": "uint256"
        },
        {
          "internalType": "bytes",
          "name": "data",
          "type": "bytes"
        }
      ],
      "name": "safeTransferFrom",
      "outputs": [],
      "stateMutability": "nonpayable",
      "type": "function"
    },
    {
      "inputs": [
        {
          "internalType": "address",
          "name": "operator",
          "type": "address"
        },
        {
          "internalType": "bool",
          "name": "approved",
          "type": "bool"
        }
      ],
      "name": "setApprovalForAll",
      "outputs": [],
      "stateMutability": "nonpayable",
      "type": "function"
    },
    {
      "inputs": [
        {
          "internalType": "bytes4",
          "name": "interfaceId",
          "type": "bytes4"
        }
      ],
      "name": "supportsInterface",
      "outputs": [
        {
          "internalType": "bool",
          "name": "",
          "type": "bool"
        }
      ],
      "stateMutability": "view",
      "type": "function"
    },
    {
      "inputs": [],
      "name": "symbol",
      "outputs": [
        {
          "internalType": "string",
          "name": "",
          "type": "string"
        }
      ],
      "stateMutability": "view",
      "type": "function"
    },
    {
      "inputs": [
        {
          "internalType": "uint256",
          "name": "tokenId",
          "type": "uint256"
        }
      ],
      "name": "tokenURI",
      "outputs": [
        {
          "internalType": "string",
          "name": "",
          "type": "string"
        }
      ],
      "stateMutability": "view",
      "type": "function"
    },
    {
      "inputs": [
        {
          "internalType": "address",
          "name": "from",
          "type": "address"
        },
        {
          "internalType": "address",
          "name": "to",
          "type": "address"
        },
        {
          "internalType": "uint256",
          "name": "tokenId",
          "type": "uint256"
        }
      ],
      "name": "transferFrom",
      "outputs": [],
      "stateMutability": "nonpayable",
      "type": "function"
    },
    {
      "inputs": [
        {
          "internalType": "address",
          "name": "newOwner",
          "type": "address"
        }
      ],
      "name": "transferOwnership",
      "outputs": [],
      "stateMutability": "nonpayable",
      "type": "function"
    },
    {
      "inputs": [
        {
          "internalType": "uint256",
          "name": "",
          "type": "uint256"
        }
      ],
      "name": "vehicleData",
      "outputs": [
        {
          "internalType": "string",
          "name": "vin",
          "type": "string"
        },
        {
          "internalType": "string",
          "name": "fuelType",
          "type": "string"
        },
        {
          "internalType": "string",
          "name": "battery",
          "type": "string"
        },
        {
          "internalType": "string",
          "name": "year",
          "type": "string"
        },
        {
          "internalType": "string",
          "name": "mileage",
          "type": "string"
        }
      ],
      "stateMutability": "view",
      "type": "function"
    }
  ],
  "bytecode": "0x608060405234801561001057600080fd5b50336040518060400160405280600e81526020017f4175746f46692056656869636c650000000000000000000000000000000000008152506040518060400160405280600481526020017f4155544f00000000000000000000000000000000000000000000000000000000815250816000908161008d919061043d565b50806001908161009d919061043d565b505050600073ffffffffffffffffffffffffffffffffffffffff168173ffffffffffffffffffffffffffffffffffffffff16036101125760006040517f1e4fbdf70000000000000000000000000000000000000000000000000000000081526004016101099190610550565b60405180910390fd5b6101218161012760201b60201c565b5061056b565b6000600760009054906101000a900473ffffffffffffffffffffffffffffffffffffffff16905081600760006101000a81548173ffffffffffffffffffffffffffffffffffffffff021916908373ffffffffffffffffffffffffffffffffffffffff1602179055508173ffffffffffffffffffffffffffffffffffffffff168173ffffffffffffffffffffffffffffffffffffffff167f8be0079c531659141344cd1fd0a4f28419497f9722a3daafe3b4186f6b6457e060405160405180910390a35050565b600081519050919050565b7f4e487b7100000000000000000000000000000000000000000000000000000000600052604160045260246000fd5b7f4e487b7100000000000000000000000000000000000000000000000000000000600052602260045260246000fd5b6000600282049050600182168061026e57607f821691505b60208210810361028157610280610227565b5b50919050565b60008190508160005260206000209050919050565b60006020601f8301049050919050565b600082821b905092915050565b6000600883026102e97fffffffffffffffffffffffffffffffffffffffffffffffffffffffffffffffff826102ac565b6102f386836102ac565b95508019841693508086168417925050509392505050565b6000819050919050565b6000819050919050565b600061033a6103356103308461030b565b610315565b61030b565b9050919050565b6000819050919050565b6103548361031f565b61036861036082610341565b8484546102b9565b825550505050565b600090565b61037d610370565b61038881848461034b565b505050565b5b818110156103ac576103a1600082610375565b60018101905061038e565b5050565b601f8211156103f1576103c281610287565b6103cb8461029c565b810160208510156103da578190505b6103ee6103e68561029c565b83018261038d565b50505b505050565b600082821c905092915050565b6000610414600019846008026103f6565b1980831691505092915050565b600061042d8383610403565b9150826002028217905092915050565b610446826101ed565b67ffffffffffffffff81111561045f5761045e6101f8565b5b6104698254610256565b6104748282856103b0565b600060209050601f8311600181146104a75760008415610495578287015190505b61049f8582610421565b865550610507565b601f1984166104b586610287565b60005b828110156104dd578489015182556001820191506020850194506020810190506104b8565b868310156104fa57848901516104f6601f891682610403565b8355505b6001600288020188555050505b505050505050565b600073ffffffffffffffffffffffffffffffffffffffff82169050919050565b600061053a8261050f565b9050919050565b61054a8161052f565b82525050565b60006020820190506105656000830184610541565b92915050565b61300c8061057a6000396000f3fe608060405234801561001057600080fd5b506004361061012c5760003560e01c8063715018a6116100ad578063b88d4fde11610071578063b88d4fde14610347578063c87b56dd14610363578063e985e9c514610393578063ece9e721146103c3578063f2fde38b146103f35761012c565b8063715018a6146102c757806375794a3c146102d15780638da5cb5b146102ef57806395d89b411461030d578063a22cb4651461032b5761012c565b806323b872dd116100f457806323b872dd146101ff57806342842e0e1461021b5780636352211e14610237578063643f27141461026757806370a08231146102975761012c565b806301ffc9a7146101315780630409d1121461016157806306fdde0314610195578063081812fc146101b3578063095ea7b3146101e3575b600080fd5b61014b60048036038101906101469190612202565b61040f565b604051610158919061224a565b60405180910390f35b61017b6004803603810190610176919061229b565b610470565b60405161018c959493929190612358565b60405180910390f35b61019d61074e565b6040516101aa91906123ce565b60405180910390f35b6101cd60048036038101906101c8919061229b565b6107e0565b6040516101da9190612431565b60405180910390f35b6101fd60048036038101906101f89190612478565b6107fc565b005b610219600480360381019061021491906124b8565b610812565b005b610235600480360381019061023091906124b8565b610914565b005b610251600480360381019061024c919061229b565b610934565b60405161025e9190612431565b60405180910390f35b610281600480360381019061027c9190612640565b610946565b60405161028e9190612799565b60405180910390f35b6102b160048036038101906102ac91906127b4565b610a39565b6040516102be9190612799565b60405180910390f35b6102cf610af3565b005b6102d9610b07565b6040516102e69190612799565b60405180910390f35b6102f7610b0d565b6040516103049190612431565b60405180910390f35b610315610b37565b60405161032291906123ce565b60405180910390f35b6103456004803603810190610340919061280d565b610bc9565b005b610361600480360381019061035c91906128ee565b610bdf565b005b61037d6004803603810190610378919061229b565b610c04565b60405161038a91906123ce565b60405180910390f35b6103ad60048036038101906103a89190612971565b610d17565b6040516103ba919061224a565b60405180910390f35b6103dd60048036038101906103d8919061229b565b610dab565b6040516103ea9190612a8d565b60405180910390f35b61040d600480360381019061040891906127b4565b6110b2565b005b6000634906490660e01b7bffffffffffffffffffffffffffffffffffffffffffffffffffffffff1916827bffffffffffffffffffffffffffffffffffffffffffffffffffffffff19161480610469575061046882611138565b5b9050919050565b600960205280600052604060002060009150905080600001805461049390612ade565b80601f01602080910402602001604051908101604052809291908181526020018280546104bf90612ade565b801561050c5780601f106104e15761010080835404028352916020019161050c565b820191906000526020600020905b8154815290600101906020018083116104ef57829003601f168201915b50505050509080600101805461052190612ade565b80601f016020809104026020016040519081016040528092919081815260200182805461054d90612ade565b801561059a5780601f1061056f5761010080835404028352916020019161059a565b820191906000526020600020905b81548152906001019060200180831161057d57829003601f168201915b5050505050908060020180546105af90612ade565b80601f01602080910402602001604051908101604052809291908181526020018280546105db90612ade565b80156106285780601f106105fd57610100808354040283529160200191610628565b820191906000526020600020905b81548152906001019060200180831161060b57829003601f168201915b50505050509080600301805461063d90612ade565b80601f016020809104026020016040519081016040528092919081815260200182805461066990612ade565b80156106b65780601f1061068b576101008083540402835291602001916106b6565b820191906000526020600020905b81548152906001019060200180831161069957829003601f168201915b5050505050908060040180546106cb90612ade565b80601f01602080910402602001604051908101604052809291908181526020018280546106f790612ade565b80156107445780601f1061071957610100808354040283529160200191610744565b820191906000526020600020905b81548152906001019060200180831161072757829003601f168201915b5050505050905085565b60606000805461075d90612ade565b80601f016020809104026020016040519081016040528092919081815260200182805461078990612ade565b80156107d65780601f106107ab576101008083540402835291602001916107d6565b820191906000526020600020905b8154815290600101906020018083116107b957829003601f168201915b5050505050905090565b60006107eb8261121a565b506107f5826112a2565b9050919050565b61080e82826108096112df565b6112e7565b5050565b600073ffffffffffffffffffffffffffffffffffffffff168273ffffffffffffffffffffffffffffffffffffffff16036108845760006040517f64a0ae9200000000000000000000000000000000000000000000000000000000815260040161087b9190612431565b60405180910390fd5b600061089883836108936112df565b6112f9565b90508373ffffffffffffffffffffffffffffffffffffffff168173ffffffffffffffffffffffffffffffffffffffff161461090e578382826040517f64283d7b00000000000000000000000000000000000000000000000000000000815260040161090593929190612b0f565b60405180910390fd5b50505050565b61092f83838360405180602001604052806000815250610bdf565b505050565b600061093f8261121a565b9050919050565b6000610950611513565b60006008600081548092919061096590612b75565b919050559050610975898261159a565b61097f8189611693565b6040518060a00160405280888152602001878152602001868152602001858152602001848152506009600083815260200190815260200160002060008201518160000190816109ce9190612d69565b5060208201518160010190816109e49190612d69565b5060408201518160020190816109fa9190612d69565b506060820151816003019081610a109190612d69565b506080820151816004019081610a269190612d69565b5090505080915050979650505050505050565b60008073ffffffffffffffffffffffffffffffffffffffff168273ffffffffffffffffffffffffffffffffffffffff1603610aac5760006040517f89c62b64000000000000000000000000000000000000000000000000000000008152600401610aa39190612431565b60405180910390fd5b600360008373ffffffffffffffffffffffffffffffffffffffff1673ffffffffffffffffffffffffffffffffffffffff168152602001908152602001600020549050919050565b610afb611513565b610b0560006116ef565b565b60085481565b6000600760009054906101000a900473ffffffffffffffffffffffffffffffffffffffff16905090565b606060018054610b4690612ade565b80601f0160208091040260200160405190810160405280929190818152602001828054610b7290612ade565b8015610bbf5780601f10610b9457610100808354040283529160200191610bbf565b820191906000526020600020905b815481529060010190602001808311610ba257829003601f168201915b5050505050905090565b610bdb610bd46112df565b83836117b5565b5050565b610bea848484610812565b610bfe610bf56112df565b85858585611924565b50505050565b6060610c0f8261121a565b506000600660008481526020019081526020016000208054610c3090612ade565b80601f0160208091040260200160405190810160405280929190818152602001828054610c5c90612ade565b8015610ca95780601f10610c7e57610100808354040283529160200191610ca9565b820191906000526020600020905b815481529060010190602001808311610c8c57829003601f168201915b505050505090506000610cba611ad5565b90506000815103610ccf578192505050610d12565b600082511115610d04578082604051602001610cec929190612e77565b60405160208183030381529060405292505050610d12565b610d0d84611aec565b925050505b919050565b6000600560008473ffffffffffffffffffffffffffffffffffffffff1673ffffffffffffffffffffffffffffffffffffffff16815260200190815260200160002060008373ffffffffffffffffffffffffffffffffffffffff1673ffffffffffffffffffffffffffffffffffffffff16815260200190815260200160002060009054906101000a900460ff16905092915050565b610db3612167565b600960008381526020019081526020016000206040518060a0016040529081600082018054610de190612ade565b80601f0160208091040260200160405190810160405280929190818152602001828054610e0d90612ade565b8015610e5a5780601f10610e2f57610100808354040283529160200191610e5a565b820191906000526020600020905b815481529060010190602001808311610e3d57829003601f168201915b50505050508152602001600182018054610e7390612ade565b80601f0160208091040260200160405190810160405280929190818152602001828054610e9f90612ade565b8015610eec5780601f10610ec157610100808354040283529160200191610eec565b820191906000526020600020905b815481529060010190602001808311610ecf57829003601f168201915b50505050508152602001600282018054610f0590612ade565b80601f0160208091040260200160405190810160405280929190818152602001828054610f3190612ade565b8015610f7e5780601f10610f5357610100808354040283529160200191610f7e565b820191906000526020600020905b815481529060010190602001808311610f6157829003601f168201915b50505050508152602001600382018054610f9790612ade565b80601f0160208091040260200160405190810160405280929190818152602001828054610fc390612ade565b80156110105780601f10610fe557610100808354040283529160200191611010565b820191906000526020600020905b815481529060010190602001808311610ff357829003601f168201915b5050505050815260200160048201805461102990612ade565b80601f016020809104026020016040519081016040528092919081815260200182805461105590612ade565b80156110a25780601f10611077576101008083540402835291602001916110a2565b820191906000526020600020905b81548152906001019060200180831161108557829003601f168201915b5050505050815250509050919050565b6110ba611513565b600073ffffffffffffffffffffffffffffffffffffffff168173ffffffffffffffffffffffffffffffffffffffff160361112c5760006040517f1e4fbdf70000000000000000000000000000000000000000000000000000000081526004016111239190612431565b60405180910390fd5b611135816116ef565b50565b60007f80ac58cd000000000000000000000000000000000000000000000000000000007bffffffffffffffffffffffffffffffffffffffffffffffffffffffff1916827bffffffffffffffffffffffffffffffffffffffffffffffffffffffff1916148061120357507f5b5e139f000000000000000000000000000000000000000000000000000000007bffffffffffffffffffffffffffffffffffffffffffffffffffffffff1916827bffffffffffffffffffffffffffffffffffffffffffffffffffffffff1916145b80611213575061121282611b55565b5b9050919050565b60008061122683611bbf565b9050600073ffffffffffffffffffffffffffffffffffffffff168173ffffffffffffffffffffffffffffffffffffffff160361129957826040517f7e2732890000000000000000000000000000000000000000000000000000000081526004016112909190612799565b60405180910390fd5b80915050919050565b60006004600083815260200190815260200160002060009054906101000a900473ffffffffffffffffffffffffffffffffffffffff169050919050565b600033905090565b6112f48383836001611bfc565b505050565b60008061130584611bbf565b9050600073ffffffffffffffffffffffffffffffffffffffff168373ffffffffffffffffffffffffffffffffffffffff161461134757611346818486611dc1565b5b600073ffffffffffffffffffffffffffffffffffffffff168173ffffffffffffffffffffffffffffffffffffffff16146113d857611389600085600080611bfc565b6001600360008373ffffffffffffffffffffffffffffffffffffffff1673ffffffffffffffffffffffffffffffffffffffff168152602001908152602001600020600082825403925050819055505b600073ffffffffffffffffffffffffffffffffffffffff168573ffffffffffffffffffffffffffffffffffffffff161461145b576001600360008773ffffffffffffffffffffffffffffffffffffffff1673ffffffffffffffffffffffffffffffffffffffff168152602001908152602001600020600082825401925050819055505b846002600086815260200190815260200160002060006101000a81548173ffffffffffffffffffffffffffffffffffffffff021916908373ffffffffffffffffffffffffffffffffffffffff160217905550838573ffffffffffffffffffffffffffffffffffffffff168273ffffffffffffffffffffffffffffffffffffffff167fddf252ad1be2c89b69c2b068fc378daa952ba7f163c4a11628f55a4df523b3ef60405160405180910390a4809150509392505050565b61151b6112df565b73ffffffffffffffffffffffffffffffffffffffff16611539610b0d565b73ffffffffffffffffffffffffffffffffffffffff16146115985761155c6112df565b6040517f118cdaa700000000000000000000000000000000000000000000000000000000815260040161158f9190612431565b60405180910390fd5b565b600073ffffffffffffffffffffffffffffffffffffffff168273ffffffffffffffffffffffffffffffffffffffff160361160c5760006040517f64a0ae920000000000000000000000000000000000000000000000000000000081526004016116039190612431565b60405180910390fd5b600061161a838360006112f9565b9050600073ffffffffffffffffffffffffffffffffffffffff168173ffffffffffffffffffffffffffffffffffffffff161461168e5760006040517f73c6ac6e0000000000000000000000000000000000000000000000000000000081526004016116859190612431565b60405180910390fd5b505050565b806006600084815260200190815260200160002090816116b39190612d69565b507ff8e1a15aba9398e019f0b49df1a4fde98ee17ae345cb5f6b5e2c27f5033e8ce7826040516116e39190612799565b60405180910390a15050565b6000600760009054906101000a900473ffffffffffffffffffffffffffffffffffffffff16905081600760006101000a81548173ffffffffffffffffffffffffffffffffffffffff021916908373ffffffffffffffffffffffffffffffffffffffff1602179055508173ffffffffffffffffffffffffffffffffffffffff168173ffffffffffffffffffffffffffffffffffffffff167f8be0079c531659141344cd1fd0a4f28419497f9722a3daafe3b4186f6b6457e060405160405180910390a35050565b600073ffffffffffffffffffffffffffffffffffffffff168273ffffffffffffffffffffffffffffffffffffffff160361182657816040517f5b08ba1800000000000000000000000000000000000000000000000000000000815260040161181d9190612431565b60405180910390fd5b80600560008573ffffffffffffffffffffffffffffffffffffffff1673ffffffffffffffffffffffffffffffffffffffff16815260200190815260200160002060008473ffffffffffffffffffffffffffffffffffffffff1673ffffffffffffffffffffffffffffffffffffffff16815260200190815260200160002060006101000a81548160ff0219169083151502179055508173ffffffffffffffffffffffffffffffffffffffff168373ffffffffffffffffffffffffffffffffffffffff167f17307eab39ab6107e8899845ad3d59bd9653f200f220920489ca2b5937696c3183604051611917919061224a565b60405180910390a3505050565b60008373ffffffffffffffffffffffffffffffffffffffff163b1115611ace578273ffffffffffffffffffffffffffffffffffffffff1663150b7a02868685856040518563ffffffff1660e01b81526004016119839493929190612ef0565b6020604051808303816000875af19250505080156119bf57506040513d601f19601f820116820180604052508101906119bc9190612f51565b60015b611a43573d80600081146119ef576040519150601f19603f3d011682016040523d82523d6000602084013e6119f4565b606091505b506000815103611a3b57836040517f64a0ae92000000000000000000000000000000000000000000000000000000008152600401611a329190612431565b60405180910390fd5b805181602001fd5b63150b7a0260e01b7bffffffffffffffffffffffffffffffffffffffffffffffffffffffff1916817bffffffffffffffffffffffffffffffffffffffffffffffffffffffff191614611acc57836040517f64a0ae92000000000000000000000000000000000000000000000000000000008152600401611ac39190612431565b60405180910390fd5b505b5050505050565b606060405180602001604052806000815250905090565b6060611af78261121a565b506000611b02611ad5565b90506000815111611b225760405180602001604052806000815250611b4d565b80611b2c84611e85565b604051602001611b3d929190612e77565b6040516020818303038152906040525b915050919050565b60007f01ffc9a7000000000000000000000000000000000000000000000000000000007bffffffffffffffffffffffffffffffffffffffffffffffffffffffff1916827bffffffffffffffffffffffffffffffffffffffffffffffffffffffff1916149050919050565b60006002600083815260200190815260200160002060009054906101000a900473ffffffffffffffffffffffffffffffffffffffff169050919050565b8080611c355750600073ffffffffffffffffffffffffffffffffffffffff168273ffffffffffffffffffffffffffffffffffffffff1614155b15611d69576000611c458461121a565b9050600073ffffffffffffffffffffffffffffffffffffffff168373ffffffffffffffffffffffffffffffffffffffff1614158015611cb057508273ffffffffffffffffffffffffffffffffffffffff168173ffffffffffffffffffffffffffffffffffffffff1614155b8015611cc35750611cc18184610d17565b155b15611d0557826040517fa9fbf51f000000000000000000000000000000000000000000000000000000008152600401611cfc9190612431565b60405180910390fd5b8115611d6757838573ffffffffffffffffffffffffffffffffffffffff168273ffffffffffffffffffffffffffffffffffffffff167f8c5be1e5ebec7d5bd14f71427d1e84f3dd0314c0f7b2291e5b200ac8c7c3b92560405160405180910390a45b505b836004600085815260200190815260200160002060006101000a81548173ffffffffffffffffffffffffffffffffffffffff021916908373ffffffffffffffffffffffffffffffffffffffff16021790555050505050565b611dcc838383611f53565b611e8057600073ffffffffffffffffffffffffffffffffffffffff168373ffffffffffffffffffffffffffffffffffffffff1603611e4157806040517f7e273289000000000000000000000000000000000000000000000000000000008152600401611e389190612799565b60405180910390fd5b81816040517f177e802f000000000000000000000000000000000000000000000000000000008152600401611e77929190612f7e565b60405180910390fd5b505050565b606060006001611e9484612014565b01905060008167ffffffffffffffff811115611eb357611eb2612515565b5b6040519080825280601f01601f191660200182016040528015611ee55781602001600182028036833780820191505090505b509050600082602001820190505b600115611f48578080600190039150507f3031323334353637383961626364656600000000000000000000000000000000600a86061a8153600a8581611f3c57611f3b612fa7565b5b04945060008503611ef3575b819350505050919050565b60008073ffffffffffffffffffffffffffffffffffffffff168373ffffffffffffffffffffffffffffffffffffffff161415801561200b57508273ffffffffffffffffffffffffffffffffffffffff168473ffffffffffffffffffffffffffffffffffffffff161480611fcc5750611fcb8484610d17565b5b8061200a57508273ffffffffffffffffffffffffffffffffffffffff16611ff2836112a2565b73ffffffffffffffffffffffffffffffffffffffff16145b5b90509392505050565b600080600090507a184f03e93ff9f4daa797ed6e38ed64bf6a1f0100000000000000008310612072577a184f03e93ff9f4daa797ed6e38ed64bf6a1f010000000000000000838161206857612067612fa7565b5b0492506040810190505b6d04ee2d6d415b85acef810000000083106120af576d04ee2d6d415b85acef810000000083816120a5576120a4612fa7565b5b0492506020810190505b662386f26fc1000083106120de57662386f26fc1000083816120d4576120d3612fa7565b5b0492506010810190505b6305f5e1008310612107576305f5e10083816120fd576120fc612fa7565b5b0492506008810190505b612710831061212c57612710838161212257612121612fa7565b5b0492506004810190505b6064831061214f576064838161214557612144612fa7565b5b0492506002810190505b600a831061215e576001810190505b80915050919050565b6040518060a0016040528060608152602001606081526020016060815260200160608152602001606081525090565b6000604051905090565b600080fd5b600080fd5b60007fffffffff0000000000000000000000000000000000000000000000000000000082169050919050565b6121df816121aa565b81146121ea57600080fd5b50565b6000813590506121fc816121d6565b92915050565b600060208284031215612218576122176121a0565b5b6000612226848285016121ed565b91505092915050565b60008115159050919050565b6122448161222f565b82525050565b600060208201905061225f600083018461223b565b92915050565b6000819050919050565b61227881612265565b811461228357600080fd5b50565b6000813590506122958161226f565b92915050565b6000602082840312156122b1576122b06121a0565b5b60006122bf84828501612286565b91505092915050565b600081519050919050565b600082825260208201905092915050565b60005b838110156123025780820151818401526020810190506122e7565b60008484015250505050565b6000601f19601f8301169050919050565b600061232a826122c8565b61233481856122d3565b93506123448185602086016122e4565b61234d8161230e565b840191505092915050565b600060a0820190508181036000830152612372818861231f565b90508181036020830152612386818761231f565b9050818103604083015261239a818661231f565b905081810360608301526123ae818561231f565b905081810360808301526123c2818461231f565b90509695505050505050565b600060208201905081810360008301526123e8818461231f565b905092915050565b600073ffffffffffffffffffffffffffffffffffffffff82169050919050565b600061241b826123f0565b9050919050565b61242b81612410565b82525050565b60006020820190506124466000830184612422565b92915050565b61245581612410565b811461246057600080fd5b50565b6000813590506124728161244c565b92915050565b6000806040838503121561248f5761248e6121a0565b5b600061249d85828601612463565b92505060206124ae85828601612286565b9150509250929050565b6000806000606084860312156124d1576124d06121a0565b5b60006124df86828701612463565b93505060206124f086828701612463565b925050604061250186828701612286565b9150509250925092565b600080fd5b600080fd5b7f4e487b7100000000000000000000000000000000000000000000000000000000600052604160045260246000fd5b61254d8261230e565b810181811067ffffffffffffffff8211171561256c5761256b612515565b5b80604052505050565b600061257f612196565b905061258b8282612544565b919050565b600067ffffffffffffffff8211156125ab576125aa612515565b5b6125b48261230e565b9050602081019050919050565b82818337600083830152505050565b60006125e36125de84612590565b612575565b9050828152602081018484840111156125ff576125fe612510565b5b61260a8482856125c1565b509392505050565b600082601f8301126126275761262661250b565b5b81356126378482602086016125d0565b91505092915050565b600080600080600080600060e0888a03121561265f5761265e6121a0565b5b600061266d8a828b01612463565b975050602088013567ffffffffffffffff81111561268e5761268d6121a5565b5b61269a8a828b01612612565b965050604088013567ffffffffffffffff8111156126bb576126ba6121a5565b5b6126c78a828b01612612565b955050606088013567ffffffffffffffff8111156126e8576126e76121a5565b5b6126f48a828b01612612565b945050608088013567ffffffffffffffff811115612715576127146121a5565b5b6127218a828b01612612565b93505060a088013567ffffffffffffffff811115612742576127416121a5565b5b61274e8a828b01612612565b92505060c088013567ffffffffffffffff81111561276f5761276e6121a5565b5b61277b8a828b01612612565b91505092959891949750929550565b61279381612265565b82525050565b60006020820190506127ae600083018461278a565b92915050565b6000602082840312156127ca576127c96121a0565b5b60006127d884828501612463565b91505092915050565b6127ea8161222f565b81146127f557600080fd5b50565b600081359050612807816127e1565b92915050565b60008060408385031215612824576128236121a0565b5b600061283285828601612463565b9250506020612843858286016127f8565b9150509250929050565b600067ffffffffffffffff82111561286857612867612515565b5b6128718261230e565b9050602081019050919050565b600061289161288c8461284d565b612575565b9050828152602081018484840111156128ad576128ac612510565b5b6128b88482856125c1565b509392505050565b600082601f8301126128d5576128d461250b565b5b81356128e584826020860161287e565b91505092915050565b60008060008060808587031215612908576129076121a0565b5b600061291687828801612463565b945050602061292787828801612463565b935050604061293887828801612286565b925050606085013567ffffffffffffffff811115612959576129586121a5565b5b612965878288016128c0565b91505092959194509250565b60008060408385031215612988576129876121a0565b5b600061299685828601612463565b92505060206129a785828601612463565b9150509250929050565b600082825260208201905092915050565b60006129cd826122c8565b6129d781856129b1565b93506129e78185602086016122e4565b6129f08161230e565b840191505092915050565b600060a0830160008301518482036000860152612a1882826129c2565b91505060208301518482036020860152612a3282826129c2565b91505060408301518482036040860152612a4c82826129c2565b91505060608301518482036060860152612a6682826129c2565b91505060808301518482036080860152612a8082826129c2565b9150508091505092915050565b60006020820190508181036000830152612aa781846129fb565b905092915050565b7f4e487b7100000000000000000000000000000000000000000000000000000000600052602260045260246000fd5b60006002820490506001821680612af657607f821691505b602082108103612b0957612b08612aaf565b5b50919050565b6000606082019050612b246000830186612422565b612b31602083018561278a565b612b3e6040830184612422565b949350505050565b7f4e487b7100000000000000000000000000000000000000000000000000000000600052601160045260246000fd5b6000612b8082612265565b91507fffffffffffffffffffffffffffffffffffffffffffffffffffffffffffffffff8203612bb257612bb1612b46565b5b600182019050919050565b60008190508160005260206000209050919050565b60006020601f8301049050919050565b600082821b905092915050565b600060088302612c1f7fffffffffffffffffffffffffffffffffffffffffffffffffffffffffffffffff82612be2565b612c298683612be2565b95508019841693508086168417925050509392505050565b6000819050919050565b6000612c66612c61612c5c84612265565b612c41565b612265565b9050919050565b6000819050919050565b612c8083612c4b565b612c94612c8c82612c6d565b848454612bef565b825550505050565b600090565b612ca9612c9c565b612cb4818484612c77565b505050565b5b81811015612cd857612ccd600082612ca1565b600181019050612cba565b5050565b601f821115612d1d57612cee81612bbd565b612cf784612bd2565b81016020851015612d06578190505b612d1a612d1285612bd2565b830182612cb9565b50505b505050565b600082821c905092915050565b6000612d4060001984600802612d22565b1980831691505092915050565b6000612d598383612d2f565b9150826002028217905092915050565b612d72826122c8565b67ffffffffffffffff811115612d8b57612d8a612515565b5b612d958254612ade565b612da0828285612cdc565b600060209050601f831160018114612dd35760008415612dc1578287015190505b612dcb8582612d4d565b865550612e33565b601f198416612de186612bbd565b60005b82811015612e0957848901518255600182019150602085019450602081019050612de4565b86831015612e265784890151612e22601f891682612d2f565b8355505b6001600288020188555050505b505050505050565b600081905092915050565b6000612e51826122c8565b612e5b8185612e3b565b9350612e6b8185602086016122e4565b80840191505092915050565b6000612e838285612e46565b9150612e8f8284612e46565b91508190509392505050565b600081519050919050565b600082825260208201905092915050565b6000612ec282612e9b565b612ecc8185612ea6565b9350612edc8185602086016122e4565b612ee58161230e565b840191505092915050565b6000608082019050612f056000830187612422565b612f126020830186612422565b612f1f604083018561278a565b8181036060830152612f318184612eb7565b905095945050505050565b600081519050612f4b816121d6565b92915050565b600060208284031215612f6757612f666121a0565b5b6000612f7584828501612f3c565b91505092915050565b6000604082019050612f936000830185612422565b612fa0602083018461278a565b9392505050565b7f4e487b7100000000000000000000000000000000000000000000000000000000600052601260045260246000fdfea26469706673582212201dcedb004c862af670c6110df0887f258c5826b27e345e1164f747e4f647218064736f6c634300081c0033",
  "linkReferences": {},
  "deployedLinkReferences": {}
}